:100000000C942A000C9447000C9405010C944700B2
:100010000C9447000C9447000C9447000C94470044
:100020000C9447000C9447000C9447000C948701F3
:100030000C9447000C9447000C9447000C94470024
:100040000C9447000C9447000C9447000C94470014
:100050000C94470011241FBECFE5D8E0DEBFCDBF12
:1000600010E0A0E6B0E0E8E3F4E002C005900D92F5
:10007000A437B107D9F720E0A4E7B0E001C01D9292
:10008000A838B207E1F70E94AC010C941A020C9454
:100090000000982F907F9BBBC198C39AEFECF7E0CC
:1000A0003197F1F700C00000C398EFECF7E031970B
:1000B000F1F700C00000F0E18F9FC00111248BBB5D
:1000C000C39A8FEC97E00197F1F700C00000C39846
:1000D000EFECF7E03197F1F700C00000089580EFF2
:1000E0008ABB87B38E6087BB80E28BBBC39A8FECE1
:1000F00097E00197F1F700C00000C3988FEC97E0FC
:100100000197F1F700C0000088E20E9449008FECDF
:1001100097E00197F1F700C000008FE00E944900CE
:100120008FEC97E00197F1F700C0000080E80C9495
:100130004900982F907F9BBBC19AC39AEFE9FFE0DB
:100140003197F1F700C00000C398EFE9FFE0319765
:10015000F1F700C00000F0E18F9FC00111248BBBBC
:10016000C39A8FE99FE00197F1F700C00000C398A0
:10017000EFE9FFE03197F1F700C000000895CF9359
:10018000DF93EC018991882319F00E949900FACF3E
:10019000DF91CF91089581E00E9449008FE097E2BE
:1001A0000197F1F700C00000089520E4829FC0018C
:1001B00011248068860F0E94490085E88A95F1F72E
:1001C0000000089513BE81E083BF12BE89B781602D
:1001D00089BF089585B7846085BF8BB780688BBF62
:1001E0000895889A8B98939A0E94EA000C94E200F2
:1001F00080917900811108C0909A88E28A95F1F780
:10020000909881E08093790008951F920F920FB625
:100210000F9211242F933F934F935F936F937F938C
:100220008F939F93AF93BF93EF93FF938091780049
:1002300081110DC012BE81E080937800109274008D
:100240001092750010927600109277004FC022B77E
:100250008091740090917500A0917600B091770024
:10026000BA2FA92F982F8827BC01CD01620F711DCD
:10027000811D911D22ED31E040E050E00E94B80167
:1002800020937A0030937B0040937C0050937D0054
:1002900060E070E081E090E00E94D5004AE06EE707
:1002A00070E080917A0090917B000E94E5016DE6FC
:1002B00070E08EE790E00E94DA018EE790E00E9405
:1002C000BF002FEF81EE94E0215080409040E1F795
:1002D00000C0000010927400109275001092760019
:1002E000109277001092780010927900FF91EF91B0
:1002F000BF91AF919F918F917F916F915F914F913E
:100300003F912F910F900FBE0F901F9018951F9245
:100310000F920FB60F9211248F939F93AF93BF93B9
:100320008091740090917500A0917600B091770053
:100330000196A11DB11D8093740090937500A09348
:100340007600B0937700BF91AF919F918F910F90FE
:100350000FBE0F901F9018950E946F000E94F10031
:10036000789480E690E00E94BF000E94F800FDCFE4
:10037000A1E21A2EAA1BBB1BFD010DC0AA1FBB1FA9
:10038000EE1FFF1FA217B307E407F50720F0A21B1B
:10039000B30BE40BF50B661F771F881F991F1A9488
:1003A00069F760957095809590959B01AC01BD01B2
:1003B000CF010895FB01DC010D900020E9F71197B2
:1003C00001900D920020E1F70895BB274A3031F4E7
:1003D000992322F4BDE2909581959F4F0C94F101F1
:1003E000BB27FB015527AA27880F991FAA1FA4170F
:1003F00010F0A41B83955051B9F7A05DAA3308F003
:10040000A95DA193009779F7B111B1931192CB0136
:100410000C940A02DC01FC01672F71917723E1F74C
:10042000329704C07C916D9370836291AE17BF07C1
:08043000C8F30895F894FFCF12
:1004380044697374616E6365206973200020636D7D
:040448002020000070
:00000001FF
