:100000000C942A000C943C000C9404010C943C00C9
:100010000C943C000C943C000C943C000C943C0070
:100020000C943C000C943C000C943C000C9441015A
:100030000C943C000C943C000C943C000C943C0050
:100040000C943C000C943C000C943C000C943C0040
:100050000C943C0011241FBECFE5D8E0DEBFCDBF1D
:1000600020E0A0E6B0E001C01D92AA36B207E1F799
:100070000E9463010C948A010C940000982F9295C1
:100080009F709BBBDF98DD9AEFECF7E03197F1F7BB
:1000900000C00000DD98EFECF7E03197F1F700C009
:1000A00000008F708BBBDD9A8FEC97E00197F1F722
:1000B00000C00000DD98EFECF7E03197F1F700C0E9
:1000C000000008958FE08ABB8AB3806E8ABB82E00D
:1000D0008BBBDD9A8FEC97E00197F1F700C0000031
:1000E000DD988FEC97E00197F1F700C0000088E2FF
:1000F0000E943E008FEC97E00197F1F700C00000EE
:100100008FE00E943E008FEC97E00197F1F700C06E
:10011000000080E80C943E00982F92959F709BBB46
:10012000DF9ADD9AEFE9FFE03197F1F700C00000B8
:10013000DD98EFE9FFE03197F1F700C000008F7024
:100140008BBBDD9A8FE99FE00197F1F700C00000BB
:10015000DD98EFE9FFE03197F1F700C00000089566
:10016000CF93DF93EC018991882319F00E948C00D2
:10017000FACFDF91CF91089581E00E943E008FE099
:1001800097E20197F1F700C00000089520E4829FF4
:10019000C00111248068860F0E943E0085E88A9580
:1001A000F1F70000089513BE81E083BF12BE89B746
:1001B000816089BF089585B7846085BF85B7877FD3
:1001C00085BF8BB780688BBF0895889A8B98939A68
:1001D0000E94DB000C94D30080916300811113C056
:1001E0008FE19EE40197F1F700C0000090989AE13A
:1001F0009A95F1F700C0909A88E28A95F1F7909865
:1002000081E08093630008951F920F920FB60F92C2
:1002100011242F935F936F937F938F939F93AF934B
:10022000BF93809163008130F9F490916200911145
:1002300008C012BE809362001092610010926000AC
:1002400013C022B780E090E090916000820F911D72
:100250006AE370E00E947601709365006093640029
:100260001092620010926300BF91AF919F918F91A5
:100270007F916F915F912F910F900FBE0F901F9004
:1002800018951F920F920FB60F9211248F939F9380
:1002900080916200813081F48091600090916100D2
:1002A000019690936100809360008C35910520F059
:1002B00010926300109262009F918F910F900FBE79
:1002C0000F901F9018950E94E5008FEF8ABB87BBA7
:1002D0007894CFEF809164008BBB8091640084366A
:1002E00008F4C8BB18BA0E94EC00F4CFAA1BBB1BD1
:1002F00051E107C0AA1FBB1FA617B70710F0A61B26
:10030000B70B881F991F5A95A9F780959095BC0146
:08031000CD010895F894FFCF20
:00000001FF
