:100000000C942A000C9447000C9405010C944700B2
:100010000C9447000C9447000C9447000C94470044
:100020000C9447000C9447000C9447000C948901F1
:100030000C9447000C9447000C9447000C94470024
:100040000C9447000C9447000C9447000C94470014
:100050000C94470011241FBECFE5D8E0DEBFCDBF12
:1000600010E0A0E6B0E0E8E7F4E002C005900D92F1
:10007000A237B107D9F720E0A2E7B0E001C01D9296
:10008000A638B207E1F70E94C2010C943A020C9420
:100090000000982F907F9BBBC198C39AEFE0F7E2D6
:1000A0003197F1F700C00000C398EFE0F7E2319715
:1000B000F1F700C00000F0E18F9FC00111248BBB5D
:1000C000C39A8FE097E20197F1F700C00000C39850
:1000D000EFE0F7E23197F1F700C00000089580EFFC
:1000E0008ABB87B38E6087BB80E28BBBC39A8FE0ED
:1000F00097E20197F1F700C00000C3988FE097E204
:100100000197F1F700C0000088E20E9449008FE0EB
:1001100097E20197F1F700C000008FE00E944900CC
:100120008FE097E20197F1F700C0000080E80C949F
:100130004900982F907F9BBBC19AC39AEFE0F7E2EA
:100140003197F1F700C00000C398EFE0F7E2319774
:10015000F1F700C00000F0E18F9FC00111248BBBBC
:10016000C39A8FE097E20197F1F700C00000C398AF
:10017000EFE0F7E23197F1F700C000000895CF9368
:10018000DF93EC018991882319F00E949900FACF3E
:10019000DF91CF91089581E00E9449008FE097E2BE
:1001A0000197F1F700C00000089520E4829FC0018C
:1001B00011248068860F0E94490085E88A95F1F72E
:1001C0000000089513BE81E083BF12BE89B781602D
:1001D00089BF089585B7846085BF8BB780688BBF62
:1001E0000895889A8B98939A0E94EA000C94E200F2
:1001F00080917700811108C0909A88E28A95F1F782
:10020000909881E08093770008951F920F920FB627
:100210000F9211242F933F934F935F936F937F938C
:100220008F939F93AF93BF93EF93FF93809177004A
:10023000813009F05DC09091760091110CC012BE22
:1002400080937600109272001092730010927400E6
:10025000109275004DC022B780917200909173008A
:10026000A0917400B0917500BA2FA92F982F8827FC
:10027000BC01CD01620F711D811D911D22ED31E088
:1002800040E050E00E94D80120937800309379003C
:1002900040937A0050937B0060E070E081E090E052
:1002A0000E94D5004AE06CE770E080917800909160
:1002B00079000E9405026DE670E08CE790E00E94F4
:1002C000FA018CE790E00E94BF002FEF89EF90E0E9
:1002D000215080409040E1F700C000001092720071
:1002E00010927300109274001092750010927600B4
:1002F000FF91EF91BF91AF919F918F917F916F91FE
:100300005F914F913F912F910F900FBE0F901F90D3
:1003100018951F920F920FB60F9211242F938F935F
:100320009F93AF93BF938091720090917300A091BF
:100330007400B09175000196A11DB11D80937200EB
:1003400090937300A0937400B09375008B3D92401E
:10035000A105B10568F012BE1092770010927600E8
:100360001092720010927300109274001092750037
:10037000BF91AF919F918F912F910F900FBE0F90D2
:100380001F9018950E946F000E94F100789480E6FB
:1003900090E00E94BF008FE19EE40197F1F700C05A
:1003A00000000E94F8008FE295E70197F1F7F7CF80
:1003B000A1E21A2EAA1BBB1BFD010DC0AA1FBB1F69
:1003C000EE1FFF1FA217B307E407F50720F0A21BDB
:1003D000B30BE40BF50B661F771F881F991F1A9448
:1003E00069F760957095809590959B01AC01BD0172
:1003F000CF010895FB01DC010D900020E9F7119772
:1004000001900D920020E1F70895BB274A3031F4A6
:10041000992322F4BDE2909581959F4F0C9411028F
:10042000BB27FB015527AA27880F991FAA1FA417CE
:1004300010F0A41B83955051B9F7A05DAA3308F0C2
:10044000A95DA193009779F7B111B1931192CB01F6
:100450000C942A02DC01FC01672F71917723E1F7EC
:10046000329704C07C916D9370836291AE17BF0781
:08047000C8F30895F894FFCFD2
:1004780044697374616E6365206973200020636D3D
:02048800200052
:00000001FF
